{"abi":[{"type":"constructor","inputs":[{"name":"_token","type":"address","internalType":"contract IERC20"}],"stateMutability":"nonpayable"},{"type":"function","name":"deposit","inputs":[{"name":"_amount","type":"uint256","internalType":"uint256"}],"outputs":[],"stateMutability":"nonpayable"},{"type":"function","name":"getUserDeposit","inputs":[{"name":"user","type":"address","internalType":"address"}],"outputs":[{"name":"","type":"uint256","internalType":"uint256"}],"stateMutability":"view"},{"type":"function","name":"getVaultBalance","inputs":[],"outputs":[{"name":"","type":"uint256","internalType":"uint256"}],"stateMutability":"view"},{"type":"function","name":"nzdd_token","inputs":[],"outputs":[{"name":"","type":"address","internalType":"contract IERC20"}],"stateMutability":"view"},{"type":"function","name":"taxPerUser","inputs":[{"name":"","type":"address","internalType":"address"}],"outputs":[{"name":"","type":"uint256","internalType":"uint256"}],"stateMutability":"view"},{"type":"function","name":"withdrawMyFunds","inputs":[{"name":"_amount","type":"uint256","internalType":"uint256"}],"outputs":[],"stateMutability":"nonpayable"}],"bytecode":{"object":"0x60a060405234801561000f575f5ffd5b50604051610d83380380610d83833981810160405281019061003191906100da565b8073ffffffffffffffffffffffffffffffffffffffff1660808173ffffffffffffffffffffffffffffffffffffffff168152505050610105565b5f5ffd5b5f73ffffffffffffffffffffffffffffffffffffffff82169050919050565b5f6100988261006f565b9050919050565b5f6100a98261008e565b9050919050565b6100b98161009f565b81146100c3575f5ffd5b50565b5f815190506100d4816100b0565b92915050565b5f602082840312156100ef576100ee61006b565b5b5f6100fc848285016100c6565b91505092915050565b608051610c4a6101395f395f818161024e0152818161032f015281816103960152818161047201526106010152610c4a5ff3fe608060405234801561000f575f5ffd5b5060043610610060575f3560e01c8063336929e1146100645780636d5ad62614610080578063b6b55f251461009e578063ba8953c3146100ba578063c084b10b146100ea578063ed12e8ef1461011a575b5f5ffd5b61007e600480360381019061007991906106d3565b610138565b005b61008861032d565b6040516100959190610778565b60405180910390f35b6100b860048036038101906100b391906106d3565b610351565b005b6100d460048036038101906100cf91906107cc565b6105a5565b6040516100e19190610806565b60405180910390f35b61010460048036038101906100ff91906107cc565b6105b9565b6040516101119190610806565b60405180910390f35b6101226105fe565b60405161012f9190610806565b60405180910390f35b5f811161017a576040517f08c379a000000000000000000000000000000000000000000000000000000000815260040161017190610879565b60405180910390fd5b805f5f3373ffffffffffffffffffffffffffffffffffffffff1673ffffffffffffffffffffffffffffffffffffffff1681526020019081526020015f205410156101f9576040517f08c379a00000000000000000000000000000000000000000000000000000000081526004016101f0906108e1565b60405180910390fd5b805f5f3373ffffffffffffffffffffffffffffffffffffffff1673ffffffffffffffffffffffffffffffffffffffff1681526020019081526020015f205f828254610244919061092c565b925050819055505f7f000000000000000000000000000000000000000000000000000000000000000073ffffffffffffffffffffffffffffffffffffffff1663a9059cbb33846040518363ffffffff1660e01b81526004016102a792919061096e565b6020604051808303815f875af11580156102c3573d5f5f3e3d5ffd5b505050506040513d601f19601f820116820180604052508101906102e791906109ca565b905080610329576040517f08c379a000000000000000000000000000000000000000000000000000000000815260040161032090610a3f565b60405180910390fd5b5050565b7f000000000000000000000000000000000000000000000000000000000000000081565b5f8111610393576040517f08c379a000000000000000000000000000000000000000000000000000000000815260040161038a90610879565b60405180910390fd5b807f000000000000000000000000000000000000000000000000000000000000000073ffffffffffffffffffffffffffffffffffffffff1663dd62ed3e33306040518363ffffffff1660e01b81526004016103ef929190610a5d565b602060405180830381865afa15801561040a573d5f5f3e3d5ffd5b505050506040513d601f19601f8201168201806040525081019061042e9190610a98565b101561046f576040517f08c379a000000000000000000000000000000000000000000000000000000000815260040161046690610b0d565b60405180910390fd5b5f7f000000000000000000000000000000000000000000000000000000000000000073ffffffffffffffffffffffffffffffffffffffff166323b872dd3330856040518463ffffffff1660e01b81526004016104cd93929190610b2b565b6020604051808303815f875af11580156104e9573d5f5f3e3d5ffd5b505050506040513d601f19601f8201168201806040525081019061050d91906109ca565b90508061054f576040517f08c379a000000000000000000000000000000000000000000000000000000000815260040161054690610baa565b60405180910390fd5b815f5f3373ffffffffffffffffffffffffffffffffffffffff1673ffffffffffffffffffffffffffffffffffffffff1681526020019081526020015f205f82825461059a9190610bc8565b925050819055505050565b5f602052805f5260405f205f915090505481565b5f5f5f8373ffffffffffffffffffffffffffffffffffffffff1673ffffffffffffffffffffffffffffffffffffffff1681526020019081526020015f20549050919050565b5f7f000000000000000000000000000000000000000000000000000000000000000073ffffffffffffffffffffffffffffffffffffffff166370a08231306040518263ffffffff1660e01b81526004016106589190610bfb565b602060405180830381865afa158015610673573d5f5f3e3d5ffd5b505050506040513d601f19601f820116820180604052508101906106979190610a98565b905090565b5f5ffd5b5f819050919050565b6106b2816106a0565b81146106bc575f5ffd5b50565b5f813590506106cd816106a9565b92915050565b5f602082840312156106e8576106e761069c565b5b5f6106f5848285016106bf565b91505092915050565b5f73ffffffffffffffffffffffffffffffffffffffff82169050919050565b5f819050919050565b5f61074061073b610736846106fe565b61071d565b6106fe565b9050919050565b5f61075182610726565b9050919050565b5f61076282610747565b9050919050565b61077281610758565b82525050565b5f60208201905061078b5f830184610769565b92915050565b5f61079b826106fe565b9050919050565b6107ab81610791565b81146107b5575f5ffd5b50565b5f813590506107c6816107a2565b92915050565b5f602082840312156107e1576107e061069c565b5b5f6107ee848285016107b8565b91505092915050565b610800816106a0565b82525050565b5f6020820190506108195f8301846107f7565b92915050565b5f82825260208201905092915050565b7f416d6f756e74206d7573742062652067726561746572207468616e207a65726f5f82015250565b5f61086360208361081f565b915061086e8261082f565b602082019050919050565b5f6020820190508181035f83015261089081610857565b9050919050565b7f496e73756666696369656e7420757365722062616c616e6365000000000000005f82015250565b5f6108cb60198361081f565b91506108d682610897565b602082019050919050565b5f6020820190508181035f8301526108f8816108bf565b9050919050565b7f4e487b71000000000000000000000000000000000000000000000000000000005f52601160045260245ffd5b5f610936826106a0565b9150610941836106a0565b9250828203905081811115610959576109586108ff565b5b92915050565b61096881610791565b82525050565b5f6040820190506109815f83018561095f565b61098e60208301846107f7565b9392505050565b5f8115159050919050565b6109a981610995565b81146109b3575f5ffd5b50565b5f815190506109c4816109a0565b92915050565b5f602082840312156109df576109de61069c565b5b5f6109ec848285016109b6565b91505092915050565b7f546f6b656e207769746864726177616c206661696c65640000000000000000005f82015250565b5f610a2960178361081f565b9150610a34826109f5565b602082019050919050565b5f6020820190508181035f830152610a5681610a1d565b9050919050565b5f604082019050610a705f83018561095f565b610a7d602083018461095f565b9392505050565b5f81519050610a92816106a9565b92915050565b5f60208284031215610aad57610aac61069c565b5b5f610aba84828501610a84565b91505092915050565b7f546f6b656e20616c6c6f77616e636520746f6f206c6f770000000000000000005f82015250565b5f610af760178361081f565b9150610b0282610ac3565b602082019050919050565b5f6020820190508181035f830152610b2481610aeb565b9050919050565b5f606082019050610b3e5f83018661095f565b610b4b602083018561095f565b610b5860408301846107f7565b949350505050565b7f546f6b656e207472616e73666572206661696c656400000000000000000000005f82015250565b5f610b9460158361081f565b9150610b9f82610b60565b602082019050919050565b5f6020820190508181035f830152610bc181610b88565b9050919050565b5f610bd2826106a0565b9150610bdd836106a0565b9250828201905080821115610bf557610bf46108ff565b5b92915050565b5f602082019050610c0e5f83018461095f565b9291505056fea26469706673582212204a22fc885ba05bcf6e78b988f0f5f2c0ad0d156db0f8252479020b01a7b8952764736f6c634300081c0033","linkReferences":{}},"methodIdentifiers":{"deposit(uint256)":"b6b55f25","getUserDeposit(address)":"c084b10b","getVaultBalance()":"ed12e8ef","nzdd_token()":"6d5ad626","taxPerUser(address)":"ba8953c3","withdrawMyFunds(uint256)":"336929e1"},"id":0}