{"abi":[{"type":"constructor","inputs":[],"stateMutability":"nonpayable"},{"type":"function","name":"depositNZDD","inputs":[{"name":"_tokenAddress","type":"address","internalType":"address"},{"name":"_amount","type":"uint256","internalType":"uint256"}],"outputs":[],"stateMutability":"nonpayable"},{"type":"function","name":"getTokenBalance","inputs":[{"name":"_tokenAddress","type":"address","internalType":"address"}],"outputs":[{"name":"","type":"uint256","internalType":"uint256"}],"stateMutability":"view"},{"type":"function","name":"i_owner","inputs":[],"outputs":[{"name":"","type":"address","internalType":"address"}],"stateMutability":"view"},{"type":"function","name":"withdrawNZDD","inputs":[{"name":"_tokenAddress","type":"address","internalType":"address"},{"name":"_tokenAmount","type":"uint256","internalType":"uint256"}],"outputs":[],"stateMutability":"nonpayable"}],"bytecode":{"object":"0x6080604052348015600e575f5ffd5b50335f5f6101000a81548173ffffffffffffffffffffffffffffffffffffffff021916908373ffffffffffffffffffffffffffffffffffffffff160217905550610ad98061005b5f395ff3fe608060405234801561000f575f5ffd5b506004361061004a575f3560e01c8063255bd98a1461004e5780633aecd0e31461006a5780635e1cbc271461009a578063dba6335f146100b6575b5f5ffd5b6100686004803603810190610063919061068a565b6100d4565b005b610084600480360381019061007f91906106c8565b61026c565b6040516100919190610702565b60405180910390f35b6100b460048036038101906100af919061068a565b61037f565b005b6100be6105d5565b6040516100cb919061072a565b60405180910390f35b5f5f9054906101000a900473ffffffffffffffffffffffffffffffffffffffff1673ffffffffffffffffffffffffffffffffffffffff163373ffffffffffffffffffffffffffffffffffffffff1614610162576040517f08c379a0000000000000000000000000000000000000000000000000000000008152600401610159906107c3565b60405180910390fd5b5f81116101a4576040517f08c379a000000000000000000000000000000000000000000000000000000000815260040161019b9061082b565b60405180910390fd5b5f8290505f8173ffffffffffffffffffffffffffffffffffffffff1663a9059cbb33856040518363ffffffff1660e01b81526004016101e4929190610849565b6020604051808303815f875af1158015610200573d5f5f3e3d5ffd5b505050506040513d601f19601f8201168201806040525081019061022491906108a5565b905080610266576040517f08c379a000000000000000000000000000000000000000000000000000000000815260040161025d9061091a565b60405180910390fd5b50505050565b5f5f5f9054906101000a900473ffffffffffffffffffffffffffffffffffffffff1673ffffffffffffffffffffffffffffffffffffffff163373ffffffffffffffffffffffffffffffffffffffff16146102fb576040517f08c379a00000000000000000000000000000000000000000000000000000000081526004016102f2906107c3565b60405180910390fd5b5f8290508073ffffffffffffffffffffffffffffffffffffffff166370a08231306040518263ffffffff1660e01b8152600401610338919061072a565b602060405180830381865afa158015610353573d5f5f3e3d5ffd5b505050506040513d601f19601f82011682018060405250810190610377919061094c565b915050919050565b5f5f9054906101000a900473ffffffffffffffffffffffffffffffffffffffff1673ffffffffffffffffffffffffffffffffffffffff163373ffffffffffffffffffffffffffffffffffffffff161461040d576040517f08c379a0000000000000000000000000000000000000000000000000000000008152600401610404906107c3565b60405180910390fd5b5f811161044f576040517f08c379a00000000000000000000000000000000000000000000000000000000081526004016104469061082b565b60405180910390fd5b5f829050818173ffffffffffffffffffffffffffffffffffffffff1663dd62ed3e33306040518363ffffffff1660e01b815260040161048f929190610977565b602060405180830381865afa1580156104aa573d5f5f3e3d5ffd5b505050506040513d601f19601f820116820180604052508101906104ce919061094c565b101561050f576040517f08c379a0000000000000000000000000000000000000000000000000000000008152600401610506906109e8565b60405180910390fd5b5f8173ffffffffffffffffffffffffffffffffffffffff166323b872dd3330866040518463ffffffff1660e01b815260040161054d93929190610a06565b6020604051808303815f875af1158015610569573d5f5f3e3d5ffd5b505050506040513d601f19601f8201168201806040525081019061058d91906108a5565b9050806105cf576040517f08c379a00000000000000000000000000000000000000000000000000000000081526004016105c690610a85565b60405180910390fd5b50505050565b5f5f9054906101000a900473ffffffffffffffffffffffffffffffffffffffff1681565b5f5ffd5b5f73ffffffffffffffffffffffffffffffffffffffff82169050919050565b5f610626826105fd565b9050919050565b6106368161061c565b8114610640575f5ffd5b50565b5f813590506106518161062d565b92915050565b5f819050919050565b61066981610657565b8114610673575f5ffd5b50565b5f8135905061068481610660565b92915050565b5f5f604083850312156106a05761069f6105f9565b5b5f6106ad85828601610643565b92505060206106be85828601610676565b9150509250929050565b5f602082840312156106dd576106dc6105f9565b5b5f6106ea84828501610643565b91505092915050565b6106fc81610657565b82525050565b5f6020820190506107155f8301846106f3565b92915050565b6107248161061c565b82525050565b5f60208201905061073d5f83018461071b565b92915050565b5f82825260208201905092915050565b7f4f6e6c79206f776e65722063616e2063616c6c20746869732066756e6374696f5f8201527f6e00000000000000000000000000000000000000000000000000000000000000602082015250565b5f6107ad602183610743565b91506107b882610753565b604082019050919050565b5f6020820190508181035f8301526107da816107a1565b9050919050565b7f416d6f756e74206d7573742062652067726561746572207468616e207a65726f5f82015250565b5f610815602083610743565b9150610820826107e1565b602082019050919050565b5f6020820190508181035f83015261084281610809565b9050919050565b5f60408201905061085c5f83018561071b565b61086960208301846106f3565b9392505050565b5f8115159050919050565b61088481610870565b811461088e575f5ffd5b50565b5f8151905061089f8161087b565b92915050565b5f602082840312156108ba576108b96105f9565b5b5f6108c784828501610891565b91505092915050565b7f546f6b656e207769746864726177616c206661696c65640000000000000000005f82015250565b5f610904601783610743565b915061090f826108d0565b602082019050919050565b5f6020820190508181035f830152610931816108f8565b9050919050565b5f8151905061094681610660565b92915050565b5f60208284031215610961576109606105f9565b5b5f61096e84828501610938565b91505092915050565b5f60408201905061098a5f83018561071b565b610997602083018461071b565b9392505050565b7f546f6b656e20616c6c6f77616e636520746f6f206c6f770000000000000000005f82015250565b5f6109d2601783610743565b91506109dd8261099e565b602082019050919050565b5f6020820190508181035f8301526109ff816109c6565b9050919050565b5f606082019050610a195f83018661071b565b610a26602083018561071b565b610a3360408301846106f3565b949350505050565b7f546f6b656e207472616e73666572206661696c656400000000000000000000005f82015250565b5f610a6f601583610743565b9150610a7a82610a3b565b602082019050919050565b5f6020820190508181035f830152610a9c81610a63565b905091905056fea2646970667358221220dbdc50451a2fc8a48592f3660476ab98a28cf11de33dfad9f055e7bdc4488bf464736f6c634300081c0033","linkReferences":{}},"methodIdentifiers":{"depositNZDD(address,uint256)":"5e1cbc27","getTokenBalance(address)":"3aecd0e3","i_owner()":"dba6335f","withdrawNZDD(address,uint256)":"255bd98a"},"id":0}