{"abi":[{"type":"constructor","inputs":[{"name":"name","type":"string","internalType":"string"},{"name":"symbol","type":"string","internalType":"string"}],"stateMutability":"nonpayable"},{"type":"function","name":"allowance","inputs":[{"name":"owner","type":"address","internalType":"address"},{"name":"spender","type":"address","internalType":"address"}],"outputs":[{"name":"","type":"uint256","internalType":"uint256"}],"stateMutability":"view"},{"type":"function","name":"approve","inputs":[{"name":"spender","type":"address","internalType":"address"},{"name":"value","type":"uint256","internalType":"uint256"}],"outputs":[{"name":"","type":"bool","internalType":"bool"}],"stateMutability":"nonpayable"},{"type":"function","name":"balanceOf","inputs":[{"name":"account","type":"address","internalType":"address"}],"outputs":[{"name":"","type":"uint256","internalType":"uint256"}],"stateMutability":"view"},{"type":"function","name":"decimals","inputs":[],"outputs":[{"name":"","type":"uint8","internalType":"uint8"}],"stateMutability":"view"},{"type":"function","name":"getAddress","inputs":[],"outputs":[{"name":"","type":"address","internalType":"address"}],"stateMutability":"view"},{"type":"function","name":"mint","inputs":[{"name":"to","type":"address","internalType":"address"},{"name":"amount","type":"uint256","internalType":"uint256"}],"outputs":[],"stateMutability":"nonpayable"},{"type":"function","name":"name","inputs":[],"outputs":[{"name":"","type":"string","internalType":"string"}],"stateMutability":"view"},{"type":"function","name":"symbol","inputs":[],"outputs":[{"name":"","type":"string","internalType":"string"}],"stateMutability":"view"},{"type":"function","name":"totalSupply","inputs":[],"outputs":[{"name":"","type":"uint256","internalType":"uint256"}],"stateMutability":"view"},{"type":"function","name":"transfer","inputs":[{"name":"to","type":"address","internalType":"address"},{"name":"value","type":"uint256","internalType":"uint256"}],"outputs":[{"name":"","type":"bool","internalType":"bool"}],"stateMutability":"nonpayable"},{"type":"function","name":"transferFrom","inputs":[{"name":"from","type":"address","internalType":"address"},{"name":"to","type":"address","internalType":"address"},{"name":"value","type":"uint256","internalType":"uint256"}],"outputs":[{"name":"","type":"bool","internalType":"bool"}],"stateMutability":"nonpayable"},{"type":"event","name":"Approval","inputs":[{"name":"owner","type":"address","indexed":true,"internalType":"address"},{"name":"spender","type":"address","indexed":true,"internalType":"address"},{"name":"value","type":"uint256","indexed":false,"internalType":"uint256"}],"anonymous":false},{"type":"event","name":"Transfer","inputs":[{"name":"from","type":"address","indexed":true,"internalType":"address"},{"name":"to","type":"address","indexed":true,"internalType":"address"},{"name":"value","type":"uint256","indexed":false,"internalType":"uint256"}],"anonymous":false},{"type":"error","name":"ERC20InsufficientAllowance","inputs":[{"name":"spender","type":"address","internalType":"address"},{"name":"allowance","type":"uint256","internalType":"uint256"},{"name":"needed","type":"uint256","internalType":"uint256"}]},{"type":"error","name":"ERC20InsufficientBalance","inputs":[{"name":"sender","type":"address","internalType":"address"},{"name":"balance","type":"uint256","internalType":"uint256"},{"name":"needed","type":"uint256","internalType":"uint256"}]},{"type":"error","name":"ERC20InvalidApprover","inputs":[{"name":"approver","type":"address","internalType":"address"}]},{"type":"error","name":"ERC20InvalidReceiver","inputs":[{"name":"receiver","type":"address","internalType":"address"}]},{"type":"error","name":"ERC20InvalidSender","inputs":[{"name":"sender","type":"address","internalType":"address"}]},{"type":"error","name":"ERC20InvalidSpender","inputs":[{"name":"spender","type":"address","internalType":"address"}]}],"bytecode":{"object":"0x608060405234801561000f575f5ffd5b506040516113d13803806113d1833981810160405281019061003191906101a9565b81818160039081610042919061042f565b508060049081610052919061042f565b50505050506104fe565b5f604051905090565b5f5ffd5b5f5ffd5b5f5ffd5b5f5ffd5b5f601f19601f8301169050919050565b7f4e487b71000000000000000000000000000000000000000000000000000000005f52604160045260245ffd5b6100bb82610075565b810181811067ffffffffffffffff821117156100da576100d9610085565b5b80604052505050565b5f6100ec61005c565b90506100f882826100b2565b919050565b5f67ffffffffffffffff82111561011757610116610085565b5b61012082610075565b9050602081019050919050565b8281835e5f83830152505050565b5f61014d610148846100fd565b6100e3565b90508281526020810184848401111561016957610168610071565b5b61017484828561012d565b509392505050565b5f82601f8301126101905761018f61006d565b5b81516101a084826020860161013b565b91505092915050565b5f5f604083850312156101bf576101be610065565b5b5f83015167ffffffffffffffff8111156101dc576101db610069565b5b6101e88582860161017c565b925050602083015167ffffffffffffffff81111561020957610208610069565b5b6102158582860161017c565b9150509250929050565b5f81519050919050565b7f4e487b71000000000000000000000000000000000000000000000000000000005f52602260045260245ffd5b5f600282049050600182168061026d57607f821691505b6020821081036102805761027f610229565b5b50919050565b5f819050815f5260205f209050919050565b5f6020601f8301049050919050565b5f82821b905092915050565b5f600883026102e27fffffffffffffffffffffffffffffffffffffffffffffffffffffffffffffffff826102a7565b6102ec86836102a7565b95508019841693508086168417925050509392505050565b5f819050919050565b5f819050919050565b5f61033061032b61032684610304565b61030d565b610304565b9050919050565b5f819050919050565b61034983610316565b61035d61035582610337565b8484546102b3565b825550505050565b5f5f905090565b610374610365565b61037f818484610340565b505050565b5b818110156103a2576103975f8261036c565b600181019050610385565b5050565b601f8211156103e7576103b881610286565b6103c184610298565b810160208510156103d0578190505b6103e46103dc85610298565b830182610384565b50505b505050565b5f82821c905092915050565b5f6104075f19846008026103ec565b1980831691505092915050565b5f61041f83836103f8565b9150826002028217905092915050565b6104388261021f565b67ffffffffffffffff81111561045157610450610085565b5b61045b8254610256565b6104668282856103a6565b5f60209050601f831160018114610497575f8415610485578287015190505b61048f8582610414565b8655506104f6565b601f1984166104a586610286565b5f5b828110156104cc578489015182556001820191506020850194506020810190506104a7565b868310156104e957848901516104e5601f8916826103f8565b8355505b6001600288020188555050505b505050505050565b610ec68061050b5f395ff3fe608060405234801561000f575f5ffd5b50600436106100a7575f3560e01c806338cc48311161006f57806338cc48311461016557806340c10f191461018357806370a082311461019f57806395d89b41146101cf578063a9059cbb146101ed578063dd62ed3e1461021d576100a7565b806306fdde03146100ab578063095ea7b3146100c957806318160ddd146100f957806323b872dd14610117578063313ce56714610147575b5f5ffd5b6100b361024d565b6040516100c09190610b3f565b60405180910390f35b6100e360048036038101906100de9190610bf0565b6102dd565b6040516100f09190610c48565b60405180910390f35b6101016102ff565b60405161010e9190610c70565b60405180910390f35b610131600480360381019061012c9190610c89565b610308565b60405161013e9190610c48565b60405180910390f35b61014f610336565b60405161015c9190610cf4565b60405180910390f35b61016d61033e565b60405161017a9190610d1c565b60405180910390f35b61019d60048036038101906101989190610bf0565b610345565b005b6101b960048036038101906101b49190610d35565b610353565b6040516101c69190610c70565b60405180910390f35b6101d7610398565b6040516101e49190610b3f565b60405180910390f35b61020760048036038101906102029190610bf0565b610428565b6040516102149190610c48565b60405180910390f35b61023760048036038101906102329190610d60565b61044a565b6040516102449190610c70565b60405180910390f35b60606003805461025c90610dcb565b80601f016020809104026020016040519081016040528092919081815260200182805461028890610dcb565b80156102d35780601f106102aa576101008083540402835291602001916102d3565b820191905f5260205f20905b8154815290600101906020018083116102b657829003601f168201915b5050505050905090565b5f5f6102e76104cc565b90506102f48185856104d3565b600191505092915050565b5f600254905090565b5f5f6103126104cc565b905061031f8582856104e5565b61032a858585610578565b60019150509392505050565b5f6012905090565b5f30905090565b61034f8282610668565b5050565b5f5f5f8373ffffffffffffffffffffffffffffffffffffffff1673ffffffffffffffffffffffffffffffffffffffff1681526020019081526020015f20549050919050565b6060600480546103a790610dcb565b80601f01602080910402602001604051908101604052809291908181526020018280546103d390610dcb565b801561041e5780601f106103f55761010080835404028352916020019161041e565b820191905f5260205f20905b81548152906001019060200180831161040157829003601f168201915b5050505050905090565b5f5f6104326104cc565b905061043f818585610578565b600191505092915050565b5f60015f8473ffffffffffffffffffffffffffffffffffffffff1673ffffffffffffffffffffffffffffffffffffffff1681526020019081526020015f205f8373ffffffffffffffffffffffffffffffffffffffff1673ffffffffffffffffffffffffffffffffffffffff1681526020019081526020015f2054905092915050565b5f33905090565b6104e083838360016106e7565b505050565b5f6104f0848461044a565b90507fffffffffffffffffffffffffffffffffffffffffffffffffffffffffffffffff8110156105725781811015610563578281836040517ffb8f41b200000000000000000000000000000000000000000000000000000000815260040161055a93929190610dfb565b60405180910390fd5b61057184848484035f6106e7565b5b50505050565b5f73ffffffffffffffffffffffffffffffffffffffff168373ffffffffffffffffffffffffffffffffffffffff16036105e8575f6040517f96c6fd1e0000000000000000000000000000000000000000000000000000000081526004016105df9190610d1c565b60405180910390fd5b5f73ffffffffffffffffffffffffffffffffffffffff168273ffffffffffffffffffffffffffffffffffffffff1603610658575f6040517fec442f0500000000000000000000000000000000000000000000000000000000815260040161064f9190610d1c565b60405180910390fd5b6106638383836108b6565b505050565b5f73ffffffffffffffffffffffffffffffffffffffff168273ffffffffffffffffffffffffffffffffffffffff16036106d8575f6040517fec442f050000000000000000000000000000000000000000000000000000000081526004016106cf9190610d1c565b60405180910390fd5b6106e35f83836108b6565b5050565b5f73ffffffffffffffffffffffffffffffffffffffff168473ffffffffffffffffffffffffffffffffffffffff1603610757575f6040517fe602df0500000000000000000000000000000000000000000000000000000000815260040161074e9190610d1c565b60405180910390fd5b5f73ffffffffffffffffffffffffffffffffffffffff168373ffffffffffffffffffffffffffffffffffffffff16036107c7575f6040517f94280d620000000000000000000000000000000000000000000000000000000081526004016107be9190610d1c565b60405180910390fd5b8160015f8673ffffffffffffffffffffffffffffffffffffffff1673ffffffffffffffffffffffffffffffffffffffff1681526020019081526020015f205f8573ffffffffffffffffffffffffffffffffffffffff1673ffffffffffffffffffffffffffffffffffffffff1681526020019081526020015f208190555080156108b0578273ffffffffffffffffffffffffffffffffffffffff168473ffffffffffffffffffffffffffffffffffffffff167f8c5be1e5ebec7d5bd14f71427d1e84f3dd0314c0f7b2291e5b200ac8c7c3b925846040516108a79190610c70565b60405180910390a35b50505050565b5f73ffffffffffffffffffffffffffffffffffffffff168373ffffffffffffffffffffffffffffffffffffffff1603610906578060025f8282546108fa9190610e5d565b925050819055506109d4565b5f5f5f8573ffffffffffffffffffffffffffffffffffffffff1673ffffffffffffffffffffffffffffffffffffffff1681526020019081526020015f205490508181101561098f578381836040517fe450d38c00000000000000000000000000000000000000000000000000000000815260040161098693929190610dfb565b60405180910390fd5b8181035f5f8673ffffffffffffffffffffffffffffffffffffffff1673ffffffffffffffffffffffffffffffffffffffff1681526020019081526020015f2081905550505b5f73ffffffffffffffffffffffffffffffffffffffff168273ffffffffffffffffffffffffffffffffffffffff1603610a1b578060025f8282540392505081905550610a65565b805f5f8473ffffffffffffffffffffffffffffffffffffffff1673ffffffffffffffffffffffffffffffffffffffff1681526020019081526020015f205f82825401925050819055505b8173ffffffffffffffffffffffffffffffffffffffff168373ffffffffffffffffffffffffffffffffffffffff167fddf252ad1be2c89b69c2b068fc378daa952ba7f163c4a11628f55a4df523b3ef83604051610ac29190610c70565b60405180910390a3505050565b5f81519050919050565b5f82825260208201905092915050565b8281835e5f83830152505050565b5f601f19601f8301169050919050565b5f610b1182610acf565b610b1b8185610ad9565b9350610b2b818560208601610ae9565b610b3481610af7565b840191505092915050565b5f6020820190508181035f830152610b578184610b07565b905092915050565b5f5ffd5b5f73ffffffffffffffffffffffffffffffffffffffff82169050919050565b5f610b8c82610b63565b9050919050565b610b9c81610b82565b8114610ba6575f5ffd5b50565b5f81359050610bb781610b93565b92915050565b5f819050919050565b610bcf81610bbd565b8114610bd9575f5ffd5b50565b5f81359050610bea81610bc6565b92915050565b5f5f60408385031215610c0657610c05610b5f565b5b5f610c1385828601610ba9565b9250506020610c2485828601610bdc565b9150509250929050565b5f8115159050919050565b610c4281610c2e565b82525050565b5f602082019050610c5b5f830184610c39565b92915050565b610c6a81610bbd565b82525050565b5f602082019050610c835f830184610c61565b92915050565b5f5f5f60608486031215610ca057610c9f610b5f565b5b5f610cad86828701610ba9565b9350506020610cbe86828701610ba9565b9250506040610ccf86828701610bdc565b9150509250925092565b5f60ff82169050919050565b610cee81610cd9565b82525050565b5f602082019050610d075f830184610ce5565b92915050565b610d1681610b82565b82525050565b5f602082019050610d2f5f830184610d0d565b92915050565b5f60208284031215610d4a57610d49610b5f565b5b5f610d5784828501610ba9565b91505092915050565b5f5f60408385031215610d7657610d75610b5f565b5b5f610d8385828601610ba9565b9250506020610d9485828601610ba9565b9150509250929050565b7f4e487b71000000000000000000000000000000000000000000000000000000005f52602260045260245ffd5b5f6002820490506001821680610de257607f821691505b602082108103610df557610df4610d9e565b5b50919050565b5f606082019050610e0e5f830186610d0d565b610e1b6020830185610c61565b610e286040830184610c61565b949350505050565b7f4e487b71000000000000000000000000000000000000000000000000000000005f52601160045260245ffd5b5f610e6782610bbd565b9150610e7283610bbd565b9250828201905080821115610e8a57610e89610e30565b5b9291505056fea2646970667358221220b996044f37ea8c00b6ebc3b1b6b6b190ce0a0ff56c0a6cb889fca793ad5ee0ed64736f6c634300081c0033","linkReferences":{}},"methodIdentifiers":{"allowance(address,address)":"dd62ed3e","approve(address,uint256)":"095ea7b3","balanceOf(address)":"70a08231","decimals()":"313ce567","getAddress()":"38cc4831","mint(address,uint256)":"40c10f19","name()":"06fdde03","symbol()":"95d89b41","totalSupply()":"18160ddd","transfer(address,uint256)":"a9059cbb","transferFrom(address,address,uint256)":"23b872dd"},"id":13}